:0600000000F008EF00F023
:10000800FACFFFF085EF01F000EEB8F0290EEE6AA6
:10001800E806FDE1106A0F6A00EEE4F0EE6A00EE11
:10002800E1F00E0EF66E010EF76E10EE03F0090009
:10003800F5CFEEFFE10602E01BEF00F096EF00F0CF
:1001000040792430191202780010FF060A0C060A02
:100110000C00026A016A006AE950EA1006E002C0B7
:10012000EDFF01C0EDFF00C0EFFF000C9CD81FECFD
:1001300005F0A1D800EEC2F0EE6AEE6AEE6A00EEBB
:10014000BCF0EE6AEE6A000EBD5DFA0ED8B4BC5D7E
:1001500019E2010E926E27EC05F036EC05F000C0B6
:1001600003F001C004F002C005F000EEC2F046EC5E
:1001700005F0010ED16FD26BF6EC04F0BC2B000E33
:10018000BD23E1D7926A7E0E806E8168006A7A0E86
:10019000016E430E026E00C0C5F001C0C6F002C081
:1001A000C7F0006A200E016E410E026E00C0C8F05A
:1001B00001C0C9F002C0CAF0660E006E360E016EB4
:1001C000410E026E00C0CBF001C0CCF002C0CDF0F9
:1001D000C00E006E7F0E016E440E026E00C0CEF0A7
:1001E00001C0CFF002C0D0F0C2C000F0C3C001F027
:1001F000C4C002F0CEC003F0CFC004F0D0C005F000
:1002000028EC04F0CBC003F0CCC004F0CDC005F066
:100210004FEC03F0C8C003F0C9C004F0CAC005F039
:100220004FEC03F0C5C003F0C6C004F0C7C005F032
:1002300028EC04F000C0C2F001C0C3F002C0C4F05A
:10024000330EC26F230EC36F410EC46FC2C0D1F014
:10025000C3C0D2F0C4C0D3F0E5D8C80ED16FD26B02
:10026000F6EC04F067D71F0E9B6E720ED36E010E74
:10027000926E936A1200D590D582D584D596D59A80
:10028000D58CF28AF28CF28ED58E1200F2BAF2A4DC
:1002900005D070D8F294D76AFA0ED66EE5C0F3FF97
:1002A000E6C0F4FFE7C0F5FFE8C0F6FFE9C0F7FFDE
:1002B000EAC000F0EBC001F0ECC002F0EDC003F0CA
:1002C000EEC004F0EFC005F0F0C006F0F1C007F09A
:1002D000F2C008F0F3C009F0F4C00AF0F5C00BF06A
:1002E000F6C00CF0F7C00DF0F8C00EF0F9C0DAFF60
:1002F000FAC0D9FFFBC0E2FFFCC0E1FFFDC0EAFF8E
:10030000FEC0E9FFFFC0FAFF1100E9CFFEF0EACF1F
:10031000FDF0E1CFFCF0E2CFFBF0D9CFFAF0DACF7D
:10032000F9F00EC0F8F00DC0F7F00CC0F6F00BC0FD
:10033000F5F00AC0F4F009C0F3F008C0F2F007C00D
:10034000F1F006C0F0F005C0EFF004C0EEF003C01D
:10035000EDF002C0ECF001C0EBF000C0EAF0F7CF26
:10036000E9F0F6CFE8F0F5CFE7F0F4CFE6F0F3CF21
:10037000E5F08CD78168020EE46501D0E46BE4C03F
:1003800000F0016A00500B0FF66E0150F76E010E7F
:10039000F7220800F550806E850ED96ED92EFED753
:1003A0008168590ED96ED92EFED78168BEC000F083
:1003B000BFC001F00050000FF66E0150F76E010E45
:1003C000F7220800F5CFE1F0C0C000F0C1C001F095
:1003D0000050000FF66E0150F76E010EF722080074
:1003E000F5CFE2F0B8C000F0B9C001F00050000F46
:1003F000F66E0150F76E010EF7220800F5CFE3F01C
:10040000E4C0E8FF20EEE1F0D926000EDA22DF504A
:10041000816E590ED96ED92EFED77F0E816EE42BD8
:10042000010CD100010ED46FD56BCD0EDB6FCC0E5D
:10043000DC6F3D0EDD6FF66AF76AD1C0DEF0D2C028
:10044000DFF0D3C0E0F0D86BD96B3F0EDA6F000E4F
:10045000036A046A056AD1C000F0D2C001F0D3C0BB
:1004600002F0C3EC04F00BE2036A800E046EBF0ED0
:10047000056ED80EE96E000EEA6E4EEC05F0F36ADA
:10048000F46AF450800A006ED551800A005C02E1E3
:10049000D451F35C0EE2036A200E046E410E056E29
:1004A000D80EE96E000EEA6E56EC05F0F34AF42A17
:1004B000E8D7D8C003F0D9C004F0DAC005F0DE0EEA
:1004C000E96E000EEA6E46EC05F0000E036A046A5F
:1004D000056AD1C000F0D2C001F0D3C002F0C3EC75
:1004E00004F0000E0CE2036A800E046EBF0E056E6F
:1004F000DE0EE96E000EEA6E4EEC05F0000E006EA8
:10050000200E016E410E026EDBC003F0DCC004F071
:10051000DDC005F04FEC03F000C003F001C004F0B3
:1005200002C005F0DEC000F0DFC001F0E0C002F064
:10053000C3EC04F00EE3036A200E046E410E056E58
:10054000DB0EE96E000EEA6E4EEC05F0F64AF72A75
:10055000D5D77F0E816EF36AF46AF450800A006E7C
:10056000F750800A005C02E1F650F35C40E2DEC026
:1005700000F0DFC001F0E0C002F0DBC003F0DCC03F
:1005800004F0DDC005F028EC04F09CEC04F000C0A1
:10059000D6F001C0D7F0D6C0C0F0D7C0C1F0D6C0E9
:1005A00000F0D7C001F02FEC05F0DBC003F0DCC099
:1005B00004F0DDC005F04FEC03F000C003F001C013
:1005C00004F002C005F0DE0EE96E000EEA6E44ECA7
:1005D00005F0036A200E046E410E056EDB0EE96E17
:1005E000000EEA6E56EC05F0F34AF42AB6D7D1C0F5
:1005F00000F0D2C001F0D3C002F09CEC04F00A0E6F
:10060000026E036A0AEC05F004C0BEF005C0BFF03C
:10061000D551800A800F010ED8B4D45DD8A0120045
:10062000F36AF46AF450800A006ED551800A005CC7
:1006300002E1D451F35C30E2036A200E046E410EF5
:10064000056EDE0EE96E000EEA6E4EEC05F0DEC0C1
:1006500000F0DFC001F0E0C002F09CEC04F000C04C
:10066000F6FF01C0F7FFF6CFB8F0F7CFB9F0F6CF3D
:1006700000F0F7CF01F02FEC05F000C003F001C04F
:1006800004F002C005F0DE0EE96E000EEA6E44ECE6
:1006900005F0F34AF42AC6D77F0E816E7F0CE96A13
:1006A000EA6A9BEC03F0A8EC03F0096A0A6A0B6A99
:1006B000070E056ED8900432033206E30050092677
:1006C00001500A2202500B22D89000360136023621
:1006D000052EF0D7090E056E04D0D8900B320A32E1
:1006E0000932D8900432033206E300500926015043
:1006F0000A2202500B22052EF0D70830081A0950A2
:10070000006E0A50016E0B50026E109610B21086E9
:1007100006520AE0075008E00626860E07E3065E4A
:10072000D8B01080C3EF03F089EF00F0065ED8A0C8
:100730001082C3EF03F0086A01340234066E04E04D
:100740000836026A018E1200006A016A026A000C11
:10075000089204340534076E05E0D8B00882056AB3
:10076000048E1200076A036A046A056A12000648CA
:1007700010800650E9E0019E08320630026ED8B0C3
:10078000018E8CEF00F0065220E0025010E00204CF
:1007900003E1002A01220222D89002320132003203
:1007A000062AF1E10250EFE010A61092F0D70050B7
:1007B000011002100AE001BEDAD7062E02D0108224
:1007C000DAD7D89000360136F6D789EF00F0065018
:1007D000075C0AE3D8B41200D8900232013200322A
:1007E000062A0650075CF6D7D89005320432033249
:1007F000072A06500718D8B41200F6D7800E051A3B
:10080000E96AEA6A9BEC03F0A8EC03F0E0DF08B0C9
:1008100017D808A207D0031E041E051E000E032AC7
:100820000422052203500026045001220550022212
:10083000086A02AEC3EF03F003D80880C3EF03F0E9
:10084000001E011E021E000E002A01220222000CC0
:10085000E96AEA6A9BEC03F0A8EC03F0096A0A6A09
:100860000B6A109610B21086065203E0075002E1A0
:1008700010841200065E770E04E30626D8B01080BE
:1008800003D00626D8A010820830081A180E056E6C
:10089000D89009360A360B36026606D00450015C41
:1008A00002E10350005C07E30350005E0450015A6C
:1008B000D8A002060980D890003601360236052EEF
:1008C000E7D70950006E0A50016E0B50026EC3EF5D
:1008D00003F0066A046A056A0250031003E1006A25
:1008E000016A000C1F0E0612D890062A0236033643
:1008F000FCE3033202320250005C0350015804E36F
:10090000016E0250005ED88004360536062E06BA07
:10091000F0D706AE05D0041E042AD8B40506051E7D
:100920000450026E0550036E06AC000C001E002A37
:10093000D8B40106011E000CE96AEA6A9BEC03F0D8
:10094000036A820E062606BEA4EF03F0F00E06260A
:1009500006BE12D0180E065C02E3A4EF03F00652A6
:1009600004E108B03AEC05F012000606D890003613
:10097000013602360336F3D7D89002320132003204
:10098000063EFAD7EED702500518800B04E0053476
:10099000055001091200029E05507F0B025C07E121
:1009A0000450015C04E10350005CD8B41200D8503C
:1009B000020905BE010AD86ED8B08009120003AE44
:1009C00004D008803AEC05F001D0086A8E0E066E5D
:1009D000E96AEA6A0352D8B4C3EF03F0D89003324D
:1009E000023201320032062AF5D7D100030EE16E41
:1009F000DD0ED96ED92EFED7E12EFAD7D10EE16EDB
:100A0000000EE26EE606000EE55AE650E510D8B498
:100A10001200ECD7066A01AE06D0001E004A01069D
:100A2000011E068C068E0350800B061A03AE6AEF79
:100A300004F0021E024A0306031E6AEF04F0C26AB3
:100A40007E0EC16EA10EC06EC280C282A10CC28297
:100A5000C2A21200C3CF00F0C4CF01F01200026A9C
:100A600001BE02060250036EDFEF04F0026A036A61
:100A7000E5EF04F0001E011E021E031E000E002AF8
:100A8000012202220322000C800E051AEECF00F094
:100A9000EECF01F0EFCF02F002EF04F0EECF00F066
:100AA000EECF01F0EFCF02F051EF03F0EECF00F008
:0C0AB000EECF01F0EFCF02F02AEF04F0CF
:020000040030CA
:0C000000FFF1FEFEFFFF7AFFFFFFFFFF95
:00000001FF
